000000001CAMPOS,SUSANA ESTER              60600002009.20DU012453211
000000002RIOS,JUAN MANUEL                 20320000880.91AB012453212
000000003PEREZ,GONZALO                    15280034022.09CD012453213
000000005MARTINEZ,SOFIA                   30300302150.57EF012453215
000000010GONZALEZ,MARIA                   80800000005.26GH012453210