000000001CAMPOS,SUSANA ESTER              60600001009.00DU012453211
000000004LOPEZ,LUCAS                      12340000522.30CD012453214
000000005MARTINEZ,SOFIA                   30300302150.57EF012453215
000000010GONZALEZ,MARIA                   80800000005.26GH012453210